:060000000A128A110C280F
:10000800FE00030EF3000A08F4000A128A115928A8
:100018000A128A110F28F601F701F80183010A1262
:100028008A1198280230831603178800890107303F
:100038008316031386008312031386010230831686
:100048000313850087018801831203138501870143
:100058008801831603138113073095000730960033
:10006800831203131F083F3940389F008316031378
:100078001F129F12831203131F08C33904389F00ED
:10008800831603139F13831203131F140330F50001
:10009800F50B4C28831203130C13831603130C1748
:1000A8000B170B108B158B170800831203130C1FEB
:1000B8005E285F2870281F0CF200720C0F39013A75
:1000C800031D672868286E281E08F2007208F700CA
:1000D800770887000C1391280B1C73287428912823
:1000E8000618772878287A28F601902886187D2817
:1000F8007E288128F601F60A902806198428852882
:100108009028F6017708F2007208F00078080A12C1
:100118008A11CC200A128A110B1074088A00730EF7
:100128008300FE0E7E0E09000A128A1116200A129A
:100138008A11831203139F18A228A328AD2802301E
:1001480083120313A000A00BA72800008312031337
:100158009F147603031DB128B228B728831603130A
:100168000C136300BF287608031DBB28BC28BF28D2
:10017800831603130C1778080A128A11E1200A1251
:100188008A118312031388009D280A128A110C28E9
:10019800F1007108831203178D0070088C00831614
:1001A80003178C130C158B1355308D00AA308D0056
:1001B8008C140C110B108B170800F50075088312AE
:1001C80003178D00831603178C130C14831203175F
:0401D8000C08080007
:08400000FF3FFF3FFF3FFF3FC0
:04400E00D420FF3F7C
:00000001FF
